:04000000CCEF3DF014
:107B7A00900EAB6E240EAC6E330EAF6E1200016E19
:107B8A009EA8FED701C0ADFFACB21200FDD701EE30
:107B9A0000F0400EEE6AE806FDE100EEC5F0200EA8
:107BAA00EE6AE806FDE1000EF86E0001F0EF3EF025
:107BBA0001C0D9FF02C0DAFFDF50036E010E046E66
:107BCA003F0E046401D00DD00450010DF35001247E
:107BDA00D96EF4500220DA6EDF500318036E042ABD
:107BEA00EFD703501200AB92AB9800F0AB880F0EA0
:107BFA00046E03680306D8A004069EBA04D0035094
:107C0A000410D8A4F7D703500410D8B405D0000E36
:107C1A00026E000E016E1200000E026E010E016E5F
:107C2A00120001C0D9FF02C0DAFF03C0DFFF000E55
:107C3A00066E17D00650010DF3500424D96EF45085
:107C4A000520DA6E0650010D010EF326000EF4220D
:107C5A00F3500124E16EF4500220E26EDFCFE7FF19
:107C6A00062A0350065CD8B01200E4D7000E036E51
:107C7A003F0E036401D010D00350010D010EF3260C
:107C8A00000EF422F3500124D96EF4500220DA6E69
:107C9A00000EDF6E032AECD701C0D9FF02C0DAFF5B
:107CAA00000EDF6E20EE44F00150D9260250DA228F
:107CBA00000EDF6E20EE41F00150D9260250DA2282
:107CCA00000EDE6E000EDD6E20EE43F00150D92666
:107CDA000250DA22000EDF6E120021EE00F010EEE2
:107CEA000DF03F0EDBCFE3FFE806FCE2020E0D6E5D
:107CFA0007C00EF0090E0F6E20EE44F00550D9268B
:107D0A000650DA22DF50106E05C0D9FF06C0DAFF2E
:107D1A00DF50116E000E4E6E1CD04E50010D010E3A
:107D2A00F326000EF422F3500524D96EF4500620EF
:107D3A00DA6E4E50086E096A050E0826000E0922F0
:107D4A000D0E0824E16E000E0920E26EDFCFE7FF78
:107D5A004E2A05C0D9FF06C0DAFFDE504E5CD8A015
:107D6A00DCD705C001F006C002F0DDEC3DF0086E7C
:107D7A004E50096E0A6A050E0926000E0A220D0ED9
:107D8A000924D96E000E0A20DA6E08C0DFFF000E41
:107D9A004D6E0CD04D50010D0D0EF324D96E000E10
:107DAA00F420DA6EDF50C4EC3DF04D2A4E50086ED6
:107DBA00096A060E0826000E09224D500A6E0B6A41
:107DCA0008500A5C0B50800A0C6E0950800A0C5845
:107DDA00D8B01200DFD70F0EC16E95909592BDEC08
:107DEA003DF020EEC5F010EE60F01F0EDBCFE3FF92
:107DFA00E806FCE283808382800E016E000E026E2A
:107E0A003BEC3EF0F8EC3DF001500210D8A41BD038
:107E1A0000018051010D010EF326000EF422800E9E
:107E2A00F324D96E000EF420DA6EAECFDFFF802B7A
:107E3A00F8EC3DF001500210D8B4EAD7000E000168
:107E4A00C26F010EC16F0001C151C211D8A420D066
:107E5A00D9D78390060E0001606F800E016E000E66
:107E6A00026E010E036E600E046E000E056E16ECB5
:107E7A003EF0800E056E000E066EC3C007F072EC6F
:107E8A003EF024D0838022D0839220D083821ED0D9
:107E9A00800E056E000E066E72EC3FF0000AD8B432
:107EAA0015D0010AD8B412D0030AD8B40FD0010AE7
:107EBA00D8B40CD0070AD8B4CCD7010AD8B4E4D7BE
:107ECA00030AD8B4DFD7010AD8B4E0D7800E016E0E
:107EDA00000E026E3BEC3EF095D720EE01F0055005
:107EEA00D9260650DA22020EDE18D8B402D0000EC5
:107EFA00120020EE02F00550D9260650DA22090EA9
:107F0A00DE18D8B402D0010E1200010E0524016E4B
:107F1A00000E0620026EDDEC3DF00009D8B402D056
:107F2A00020E120020EE03F00550D9260650DA227E
:107F3A0010EE43F00550E1260650E222DFCFE7FFBC
:107F4A0020EE04F00550D9260650DA2210EE44F04D
:107F5A000550E1260650E222DFCFE7FF20EE05F0CA
:107F6A000550D9260650DA2205C0E1FF06C0E2FF15
:107F7A00DFCFE7FF05C0D9FF06C0DAFFDE04D8A4C9
:107F8A00120020EE04F00550D9260650DA22210EFE
:107F9A00DE18D8A412D020EE06F00550D9260650D5
:107FAA00DA22DFB004D0000E096E060E03D0000EEE
:107FBA00096E040E086E0850120020EE04F00550F7
:107FCA00D9260650DA22220EDE18D8A412D020EEC4
:107FDA0006F00550D9260650DA22DFB004D0000E8A
:107FEA000B6E070E03D0000E0B6E050E0A6E0A50BA
:067FFA001200030E12004C
:020000040020DA
:08000000FFFFFFFFFFFFFFFF00
:020000040030CA
:0E000000010C191EFF8084FF0FC00FE00F409F
:00000001FF
