:0400000048EF06F0CF
:10080000006E616F20736569206F207175652068C7
:100810006F75766500006E616F206568207061728B
:1008200061206D696D00006C6967756569206F20D6
:100830006C65643100006572726F206E6F20737496
:1008400078000042434345525200006F69206E61B8
:100850006B00000020EEA5F010EE0FF03F0EDBCF96
:10086000E3FFE806FCE2020E0F6E20EE43F00850B4
:10087000D9260950DA22DF50106E090E116E700E63
:10088000126E000E506E1FD05050010D06C00AF0BF
:1008900007C00BF0F3500A26F4500B220AC0F6FFF3
:1008A0000BC0F7FF50500C6E0D6A050E0C26000EA3
:1008B0000D220F0E0C24D96E000E0D20DA6E0800EA
:1008C000F5CFDFFF502A5050010D06C00AF007C0D7
:1008D0000BF0F3500A26F4500B220AC0F6FF0BC0AF
:1008E000F7FF0800F55050600FD050500A6E0B6AA9
:1008F000050E0A26000E0B220BBEC6D70B5004E1D4
:10090000400E0A5CD8A0C0D750C013F050500A6EF9
:100910000B6A050E0A26000E0B220F0E0A24D96E52
:10092000000E0B20DA6E000EDF6E08C001F009C069
:1009300002F005EC06F00A6E50500B6E0C6A050EC4
:100940000B26000E0C220F0E0B24D96E000E0C206D
:10095000DA6E0AC0DFFF000E4F6E0CD04F50010D53
:100960000F0EF324D96E000EF420DA6EDF5053EC34
:1009700006F04F2A50500A6E0B6A050E0A26000E2A
:100980000B224F500C6E0D6A0A500C5C0D50800A01
:100990000E6E0B50800A0E58D8B01200DFD70F0E23
:1009A000C16E959095925BEC06F083808382600E19
:1009B000016E000E026EDEEC05F02AEC06F001502E
:1009C0000210D8A41BD000016051010D010EF326C6
:1009D000000EF422600EF324D96E000EF420DA6EBD
:1009E000AECFDFFF602B2AEC06F001500210D8B426
:1009F000EAD7000E0001A26F010EA16F0001A15104
:100A0000A211D8A44AD0D9D7360E066E080E076EAA
:100A1000600E086E000E096E2AEC04F05DD0160E12
:100A2000066E080E076E600E086E000E096E2AEC48
:100A300004F052D0430E066E080E076E600E086E6C
:100A4000000E096E2AEC04F047D04B0E066E080E1D
:100A5000076E600E086E000E096E2AEC04F03CD0A2
:100A60008390270E066E080E076E600E086E000E4D
:100A7000096E2AEC04F030D083802ED083922CD0E3
:100A800083822AD0010E066E080E076E600E086E75
:100A9000000E096E2AEC04F01FD0600E066E000EE8
:100AA000076E73EC05F0000AD8B4AED7010AD8B4CB
:100AB000B6D7030AD8B4BED7010AD8B4C6D7070A36
:100AC000D8B4CED7010AD8B4D9D7030AD8B4D4D76A
:100AD000010AD8B4D5D7D6D7600E016E000E026ECB
:100AE000DEEC05F06AD720EE01F00650D92607505B
:100AF000DA22020EDE18D8B402D0000E120020EE68
:100B000002F00650D9260750DA22090EDE18D8B4B2
:100B100002D0010E120006C001F007C002F005EC81
:100B200006F00009D8B402D0020E120020EE03F045
:100B30000650D9260750DA2210EE43F00650E1267F
:100B40000750E222DFCFE7FF20EE04F00650D9265F
:100B50000750DA22210EDE18D8A412D020EE05F0BC
:100B60000650D9260750DA22DFB004D0000E0A6EF4
:100B7000060E03D0000E0A6E040E096E0950120014
:100B800020EE04F00650D9260750DA22220EDE1895
:100B9000D8A412D020EE05F00650D9260750DA224C
:100BA000DFB004D0000E0C6E070E03D0000E0C6EEA
:100BB000050E0B6E0B501200030E1200000E036E9A
:100BC0003F0E036401D010D00350010D010EF32637
:100BD000000EF422F3500124D96EF4500220DA6E94
:100BE000000EDF6E032AECD701C0D9FF02C0DAFF86
:100BF000000EDF6E20EE41F00150D9260250DA22BD
:100C0000000EDE6E000EDD6E120020EE01F00150CF
:100C1000D9260250DA22DF50046E010E056E10D084
:100C20000550010D010EF326000EF422F3500124AD
:100C3000D96EF4500220DA6EDF500418046E052AD3
:100C400001C0D9FF02C0DAFFDE50055CD8A0E8D7AA
:100C500004501200AB92AB9800F0AB880F0E046EFC
:100C600003680306D8A004069EBA04D003500410FB
:100C7000D8A4F7D703500410D8B405D0000E026EE4
:100C8000000E016E1200000E026E010E016E1200C7
:100C900000EEA5F0400EEE6AE806FDE1000EF86EEB
:100CA0000001CFEF04F0016E9EA8FED701C0ADFF9A
:100CB000ACB21200FDD7900EAB6E240EAC6E330EAC
:040CC000AF6E120001
:020000040020DA
:08000000FFFFFFFFFFFFFFFF00
:020000040030CA
:0E000000010C191EFF8084FF0FC00FE00F409F
:00000001FF
